:02000002D0002C
:1040000000400D00F4510D00000006000C000501F9
:084010000401BD0B00000000DB
:04401800944F0D00B4
:10401C0009480A49884208B505D0094A824202D0AB
:10402C00121A00F06FFF0748074A0021121A00F01D
:10403C0077FF014808BD00BFD4E5032064510D0093
:10404C003CE603203CE60320F0E7032070B5074E66
:10405C00074C00F0E1FBA41BA4080025A54200D1ED
:10406C0070BD56F8043B98470135F7E730510D0009
:10407C0054510D0000F01CB808B500F033F8BDE841
:10408C00084000F08BBB00F033BA00F039BA00786E
:10409C00B0FA80F04009704701230370704710B5E7
:1040AC000446006808B100F02BFA204610BD000051
:1040BC0008B500F0BBFC4FF4165100F0A7FC00F063
:1040CC00B5FC00F0A7FC0028F9D000F0AFFC0449C7
:1040DC0000F0DFFA00F0D6FEBDE8084000F08CBD21
:1040EC00A84F0D0070B500F0A1FC0368264D1B69AC
:1040FC009847002819DD00F099FC03685B69984724
:10410C00287000F093FC297800F0CDFA00F0BAFE8C
:10411C002A2100F0A7FD00F0B5FE036829789B6802
:10412C00984700F0AFFE00F0A4FD2B783F2B28D170
:10413C0000F0A8FE01222A2100F08DFD00F0A2FE65
:10414C0003681B6998470028F8D000F09BFE0368B1
:10415C005B699847044600F069FC002C064611DAAE
:10416C002D2100F087FA61420A22304600F0A5FAB0
:10417C00304600F082FA4FF47A7000F0D5FA6E23D4
:10418C002B7070BD2146EFE74CE6032038B50A4C86
:10419C000A4BA360002503202560A580A57100F0C3
:1041AC0013F90749074A204600F094FE29460120DE
:1041BC00BDE8384000F018B940E603200000FFFFCE
:1041CC00AB400D003CE6032008B5024B1B689B6816
:1041DC00019308BD6802030008B5024B1B68DB683D
:1041EC00019308BD6802030008B5024B1B685B68AD
:1041FC00019308BD1802030008B5024B1B685B69EC
:10420C00019308BD1802030008B5024B1B685B6CD8
:10421C00019308BD4802030008B5024B1B689B6C58
:10422C00019308BD4802030008B5024B1B685B698B
:10423C00019308BD6402030008B5024B1B681B68A0
:10424C00019308BD3C02030008B5024B1B68DB68F8
:10425C00019308BD3C02030008B5024B1B681B69A7
:10426C00019308BD3C02030008B5024B1B685B6957
:10427C00019308BD3C02030008B5024B1B689B6907
:10428C00019308BD3C02030008B5024B1B68DB69B7
:10429C00019308BD3C02030008B5024B1B689B6AE6
:1042AC00019308BD3C02030008B5024B1B68DB6898
:1042BC00019308BD2802030008B5024B1B689B69DB
:1042CC00019308BD2802030008B5024B1B68DB698B
:1042DC00019308BD2802030008B5024B1B681B6A3A
:1042EC00019308BD2802030008B5024B1B685B6AEA
:1042FC00019308BD2802030008B5024B1B689B6A9A
:10430C00019308BD2802030008B5024B1B68DB6A49
:10431C00019308BD2802030008B5024B1B681B6BF8
:10432C00019308BD2802030008B5024B1B681B6CE7
:10433C00019308BD2802030008B5024B1B681B6DD6
:10434C00019308BD2802030008B5024B1B681B68CB
:10435C00019308BD4C02030008B5024B1B685B6857
:10436C00019308BD4C02030008B5024B1B681B6986
:10437C00019308BD4C02030008B5024B1B685B6936
:10438C00019308BD4C02030008B5024B1B689B69E6
:10439C00019308BD4C02030008B5024B1B68DB6996
:1043AC00019308BD4C02030008B5024B1B681B6A45
:1043BC00019308BD4C02030008B5024B1B689B6AB5
:1043CC00019308BD4C02030008B5024B1B685B68E7
:1043DC00019308BD2002030008B5024B1B685B6902
:1043EC00019308BD2002030008B5024B1B68DB6A71
:1043FC00019308BD2002030008B5034B1B68D3F8DA
:10440C008830019308BD00002002030008B5034B5F
:10441C001B68D3F89430019308BD00002002030000
:10442C0008B5024B1B685B68019308BD4002030092
:10443C0008B5024B1B689B68019308BD4002030042
:10444C0008B5024B1B68DB68019308BD40020300F2
:10445C0008B5024B1B681B69019308BD40020300A1
:10446C0008B5024B1B685B69019308BD4002030051
:10447C0008B5024B1B689B69019308BD4002030001
:10448C0008B5024B1B68DB69019308BD40020300B1
:10449C0008B5024B1B681B6A019308BD4002030060
:1044AC0008B5024B1B681B6B019308BD400203004F
:1044BC0008B5024B1B685B6B019308BD40020300FF
:1044CC0008B5024B1B681B6C019308BD400203002E
:1044DC0008B5024B1B685B6C019308BD40020300DE
:1044EC0008B5024B1B68DB6B019308BD440203004B
:1044FC0008B5024B1B681B68019308BD1C02030026
:10450C0008B5024B1B685B68019308BD1C020300D5
:10451C0008B5024B1B685B6C019308BD1C020300C1
:10452C00002240681146FFF7B3BF002240681146D5
:10453C00FFF7BEBF40680022FFF7B2BF4068002201
:10454C0081F00101FFF79CBF002340681A46194611
:10455C00FFF78EBF002340681A461946FFF780BF4D
:10456C00002240681146FFF773BF002240681146D5
:10457C00FFF75EBF406800220221FFF761BF0023F6
:10458C0040681A46FFF74CBF024B03225A60024A9E
:10459C001A60704750E60320C44F0D0010B5094B4C
:1045AC00094C022200201A60084B2060A080A071E8
:1045BC00A360FFF709FF2046054A0649BDE81040F5
:1045CC0000F088BC64E6032058E603200000FFFFDF
:1045DC003CE60320AB400D0010B50446006808B162
:1045EC00FFF71AFE204610BD10B58368044613B1C0
:1045FC00032201469847204610BD000010B5064C1A
:10460C00002320462360FFF7FFFD2046034A0449A0
:10461C00BDE8104000F05EBC68E603203CE60320D9
:10462C00E5450D00F8B506460D468F180024BD4231
:10463C000CD0336815F8011B9B6830469847031E55
:10464C0001DB1C44F3E7002C08BF1C462046F8BDD8
:10465C0013B50446084659B1019100F08DFC23684E
:10466C000199DB680246204602B0BDE810401847AD
:10467C0002B010BD03689B68184738B50D2105467C
:10468C00FFF7F8FF0A2104462846FFF7F3FF204402
:10469C0038BD38B50546FFF7DBFF04462846FFF763
:1046AC00ECFF204438BD38B50546FFF7E3FF044660
:1046BC002846FFF7E2FF204438BD30B58BB000230D
:1046CC008DF82430012A98BF0A2209AC0D46B1FBA3
:1046DC00F2F101FB125303F0FF03092B94BF3033AB
:1046EC003733DBB2AA4204F8013DEFD92146FFF77C
:1046FC00AFFF0BB030BD002340681A461946FFF7D8
:10470C00AFBE0000014B024A1A6070476CE60320F2
:10471C00F84F0D00024B1A68024B1A60704700BF2D
:10472C00D4E5032070E603200021FFF755BE10B539
:10473C000446FFF759FF204610BD00000348044A09
:10474C0004490023836000F0C5BB00BF74E603205E
:10475C003CE603203B470D00014B1860704700BF3F
:10476C00D8E5032008B50B4B43B100F05FF90368A3
:10477C001B699847002801DDAFF30080064B43B15D
:10478C0000F0D2F903681B699847002801DDAFF3EC
:10479C00008008BD000000000000000008B5FFF715
:1047AC00E1FFFFF729FD014B186008BDD4E703209A
:1047BC000248034A0349121A00F0A4BB00F4032078
:1047CC0004F4032060510D0007B5002300931A4632
:1047DC006FF07701FFF71AFE03B05DF804FB0000E1
:1047EC0007B543880A2B08D0502B0BD1094B1B68FB
:1047FC004BB103B05DF804EB1847FFF7E5FF03B0CE
:10480C005DF804FB002300931A466FF07701FFF765
:10481C00FDFDF4E788E6032038B5124C1248134D21
:10482C000021FFF775FE2368AB42114B0CBF012230
:10483C0000221A7002D0FFF7BBFF2560FFF7D4FCF3
:10484C00044600F075FB0B4B13B12046AFF3008010
:10485C0000210848FFF744FEBDE838400648002117
:10486C00FFF7CABD00F4032065470D001E1C279AF4
:10487C0084E6032000000000ED470D00704710B5E2
:10488C001821044600F02BFB204610BDF0B5037D2B
:10489C00062B8DB00E4600F104074FF0000412D029
:1048AC0000F1080515F8011D0A223046FFF705FF37
:1048BC00AF42044419D0002CF4D02E213046FFF71F
:1048CC00D9FE0444EEE72F236A4639460A208DF8B8
:1048DC000040FFF7A9FC684600F04EFB3368024627
:1048EC00DB68694630469847044620460DB0F0BD5B
:1048FC0010B5054B0446112240F8043B002100F092
:10490C000FFB204610BD00BF20500D000346074A88
:10491C0010B543F8042B01F1100251F8044B43F885
:10492C00044B9142F9D10A781A7010BD20500D0039
:10493C0010B59DF8084044EA032343EA024242EAD8
:10494C00016104234160037510BD000013B5054BD4
:10495C000360CB7800938B784A780978FFF7E8FFEF
:10496C0002B010BD20500D0041747047704708B55F
:10497C000021007CFFF708FD40EAE07008BD08B597
:10498C000121007CFFF700FD40EAE07008BD08B58E
:10499C00007CFFF7F1FC20EAE07008BD08B5007C54
:1049AC00FFF7E2FC20EAE07008BD13B50446007C7A
:1049BC000191FFF7E1FC0028019901DC607C20B13A
:1049CC00207CFFF7E9FC20EAE07002B010BD007C0F
:1049DC00FFF7EABC10B51421044600F080FA20461B
:1049EC0010BD000010B54FF47A7304460846002140
:1049FC00C4E90113044B2360012320746374114632
:104A0C00FFF7A2FC204610BD34500D00007C0022A4
:104A1C00FFF7A2BC007CFFF7CFBC10B514220446F4
:104A2C00002100F07DFA204610BD000010B5104C9E
:104A3C0088B003A8FFF7F1FF2178BFF35B8F11F06B
:104A4C00010111D120460191FFF721FB019958B1C9
:104A5C0003AA0848FFF7C6FF2046FFF71DFB064ACE
:104A6C000649044800F036FA024808B010BD00BFF1
:104A7C008CE6032090E603203CE6032079490D00E8
:104A8C0070474174704708B5007CFFF705FC20EABD
:104A9C00E07008BD08B5007CFFF7DEFB20EAE07093
:104AAC0008BD08B5007CFFF7E7FB40EAE07008BDE5
:104ABC0008B5007CFFF7D8FB40EAE07008BD007C2D
:104ACC00FFF7E2BB37B5457C04462DB1207C03B023
:104ADC00BDE83040FFF7B8BB007C0191FFF7DCFB71
:104AEC0000280199F2DC284603B030BD10B5142122
:104AFC00044600F0F4F9204610BD000010B54FF04C
:104B0C00000C0446084611464FF47A72C4E901C2FF
:104B1C00044A22600122207462741A46FFF78CFB4F
:104B2C00204610BD64500D0013B50E4C2178BFF318
:104B3C005B8F11F0010112D120460191FFF7A7FA0A
:104B4C00019960B1084A094B0948FFF7D7FF204685
:104B5C00FFF7A2FA074A0849054800F0BBF90448D8
:104B6C0002B010BDA4E60320A8E603202CE7032026
:104B7C00B0E703203CE603208D4A0D007047F8B5E2
:104B8C00064615460C468F18BC4206D0336814F8FE
:104B9C00011B9B6830469847F6E72846F8BD007C19
:104BAC000022FFF799BB007C0021FFF79DBB007C26
:104BBC000021FFF7A1BB007C0021FFF7A5BB007C07
:104BCC000021FFF7A9BB10B51421044600F087F9AA
:104BDC00204610BD10B54FF47A73044608460021E8
:104BEC00C4E90113034B236020741146FFF79CFBAF
:104BFC00204610BD94500D000023007C1A46194627
:104C0C00FFF752BB7FB500221423CDE90122ADF88A
:104C1C0004300B788DF808304B680393CB68049301
:104C2C00007C0B7A059301A9FFF786FB07B05DF8B2
:104C3C0004FB1FB5003B8DF800104FF0640103918D
:104C4C0018BF0123694601928DF80830FFF7DAFF8F
:104C5C0005B05DF804FB0123FFF7EBBF007C0022DD
:104C6C00FFF72ABBC9B2FFF7F9BF007C0022FFF7A0
:104C7C002BBB0121FFF7F9BF002240681146FFF75B
:104C8C00E7BB002240681146FFF702BC00224068D7
:104C9C001146FFF70DBC40680022FFF701BC4068CD
:104CAC00002281F00101FFF7EBBB002340681A469C
:104CBC001946FFF7DDBB002240681146FFF7B8BB71
:104CCC00406800220221FFF7BBBB002340681A4654
:104CDC00FFF7A6BB024B04225A60024A1A607047C7
:104CEC00C4E70320BC500D00002340681A46FFF7B0
:104CFC0097BB406800220221FFF7A2BB002240684C
:104D0C001146FFF795BB002240681146FFF7A0BB88
:104D1C00002340681A461946FFF7A2BB00234068DF
:104D2C001A461946FFF7A4BB40680021FFF7C8BB21
:104D3C0040680021FFF7CCBB4068002281F00101E4
:104D4C00FFF79EBB40680022FFF7AABB0022406819
:104D5C001146FFF7ADBB002240681146FFF798BB28
:104D6C002DE9F043002495B016460D460746FFF793
:104D7C00BFFD214618220EA8009400F0D1F8402364
:104D8C00CDE90C3421466B460CAA3046FFF724FAC9
:104D9C00044600284CD1024601216868FFF758FBF5
:104DAC000221804622466868FFF752FB009E81462E
:104DBC002146002E3CD000293AD17368022B03D037
:104DCC000A2B11D0F669F4E7B8F1000F0AD071691B
:104DDC0006A8043107ADFFF7B9FD0FCD3C1D0FC47C
:104DEC002B6823704146EDE7B9F1000F01D149461C
:104DFC00E8E77469102201A800F092F806238DF8F8
:104E0C00143001AD04F108031834186859682A46A7
:104E1C0003C20833A3421546F7D101A906A807AD72
:104E2C00FFF774FD0FCD3C1D0FC42B682370DEE71C
:104E3C000098FFF7C9F9384615B0BDE8F0830000BB
:104E4C00024B034A1A6000225A607047CCE70320D9
:104E5C00F8500D0038B50023202543801423044658
:104E6C000380856005610649284600F03AF804493C
:104E7C006060284600F035F8E060204638BD00BF81
:104E8C002C510D0030B50F4D2978BFF35B8F11F00D
:104E9C00010487B013D12846FFF7F9F878B101A8BF
:104EAC00FFF7D8FF01AA21460748FFF793FE2846D3
:104EBC00FFF7F2F8054A0649034800F00BF80248E0
:104ECC0007B030BDD8E70320DCE703203CE6032025
:104EDC00894B0D000B460146184600F005B8FFF74C
:104EEC00D4B8FFF7D0B8000010B5054C13462CB160
:104EFC000A4601460220AFF3008010BD2046FCE7B5
:104F0C00000000000A44914200F1FF3300D17047C9
:104F1C0010B511F8014B03F8014F9142F9D110BDB6
:104F2C0002440346934200D1704703F8011BF9E792
:104F3C0038B50D4B1D68AB6B04467BB91820FFF7D9
:104F4C00D7FA0A4A0A4BA863C0E90023094B8360CD
:104F5C000B23838101220023C0E90423AB6B0022C5
:104F6C001C615A6138BD00BFD8E503200E33CDABB0
:104F7C0034126DE6ECDE0500034613F8012B002A13
:104F8C00FBD1181A013870471D400D0059400D0017
:104F9C0081400D0085400D000000000073657269B2
:104FAC00616C20697320636F6E6E65637465640059
:104FBC0000000000000000008B450D0081450D0035
:104FCC0077450D006D450D0061450D0055450D00F3
:104FDC00354D0D003D4D0D0049450D0041450D0071
:104FEC0037450D002D450D006D4D0D0061707000A5
:104FFC0025592D256D2D25645425483A254D3A25E6
:10500C0053257A0061736374696D650000000000BC
:10501C000000000099480D0089480D008B480D00D8
:10502C00000000000000000079490D00E1490D006E
:10503C00B7490D0031460D00A9490D007B490D0003
:10504C008B490D00DB490D009B490D0075490D0086
:10505C0000000000000000008D4A0D00F94A0D0010
:10506C00D14A0D0031460D00A14A0D00BD4A0D007C
:10507C00AF4A0D00CB4A0D008F4A0D00934A0D002C
:10508C000000000000000000894B0D00D34B0D0008
:10509C00AB4B0D008B4B0D00B34B0D00BB4B0D0000
:1050AC00C34B0D00CB4B0D000000000000000000B6
:1050BC00D74C0D00CD4C0D00C34C0D00854C0D0094
:1050CC0003470D00B74C0D00354D0D003D4D0D0047
:1050DC00AB4C0D00A34C0D00994C0D008F4C0D00EA
:1050EC006D4D0D000000000000000000F54C0D009F
:1050FC00FF4C0D00094D0D00134D0D001D4D0D0005
:10510C00294D0D00354D0D003D4D0D00454D0D004B
:10511C00514D0D00594D0D00634D0D006D4D0D00A1
:10512C000000000099410D0095450D00A9450D00AA
:10513C0009460D0011470D0021470D0049470D0090
:10514C00E14C0D004D4E0D00000000000000000071
:04515C00000000004F
:04516000000000004B
:1051640010500D00DCE503200000000000000000EA
:10517400000000000000000000000000000000002B
:10518400000000000000000000000000000000001B
:10519400000000000000000000000000000000000B
:1051A40000000000000000000000000000000000FB
:1051B40000000000000000000000000000000000EB
:0851C4000000000000000000E3
:1051CC00FFFFFFFF00000102030405060708090AA0
:1051DC000B0C0D0E0F101112131415161718191A9B
:0851EC001B1C1D1E1F202800E2
:0451F40078563412A3
:04000003D000401CCD
:00000001FF
