:02000002D0002C
:1040000000400D0054520D00000006000C00050198
:084010000401BD0B00000000DB
:0440180010500D0037
:10401C0009480A49884208B505D0094A824202D0AB
:10402C00121A00F0ADFF0748074A0021121A00F0DF
:10403C00B5FF014808BD00BFC8E50320C4510D0001
:10404C0030E6032030E60320F0E7032070B5074E7E
:10405C00074C00F0D5FBA41BA4080025A54200D1F9
:10406C0070BD56F8043B98470135F7E798510D00A1
:10407C00BC510D0000F036B808B500F057F8BDE89B
:10408C00084000F07FBB00F041BA00F047BA00785E
:10409C00B0FA80F0400970470123037070470000AC
:1040AC0008B500F02DFF03685B699847014B187049
:1040BC0008BD00BF40E6032010B500F021FF044608
:1040CC00052000F0F1FE2368C1B29B682046BDE8D4
:1040DC001040184710B50446006808B100F01EFAED
:1040EC00204610BD08B500F00BFF2A2100F07AFD28
:1040FC0000F006FF0B4900F078FD00F001FF0A49C3
:10410C0000F077FD0121062000F0A4FE002105201F
:10411C0000F0A0FE00F07AFCBDE808404FF4165108
:10412C0000F068BCAD400D00C5400D0010B5094C49
:10413C002278312A03D10121062000F09CFE23783D
:10414C00302B05D1BDE810400021062000F093BEB5
:10415C0010BD00BF40E6032038B50A4C0A4BA360E3
:10416C00002503202560A580A57100F043F90749BF
:10417C00074A204600F0ECFE29460120BDE83840F5
:10418C0000F040B934E603200000FFFFE1400D00D1
:10419C0030E6032008B5024B1B689B68019308BDF1
:1041AC006802030008B5024B1B68DB68019308BD6D
:1041BC006802030008B5024B1B689B68019308BD9D
:1041CC002C02030008B5024B1B68DB68019308BD89
:1041DC002C02030008B5024B1B681B69019308BD38
:1041EC002C02030008B5024B1B685B69019308BDE8
:1041FC002C02030008B5024B1B685B68019308BDD9
:10420C001802030008B5024B1B685B69019308BDDB
:10421C001802030008B5024B1B685B6C019308BDC8
:10422C004802030008B5024B1B689B6C019308BD48
:10423C004802030008B5024B1B685B69019308BD7B
:10424C006402030008B5024B1B681B68019308BD90
:10425C003C02030008B5024B1B68DB68019308BDE8
:10426C003C02030008B5024B1B681B69019308BD97
:10427C003C02030008B5024B1B685B69019308BD47
:10428C003C02030008B5024B1B689B69019308BDF7
:10429C003C02030008B5024B1B68DB69019308BDA7
:1042AC003C02030008B5024B1B681B6A019308BD56
:1042BC003C02030008B5024B1B689B6A019308BDC6
:1042CC003C02030008B5024B1B68DB68019308BD78
:1042DC002802030008B5024B1B681B6A019308BD3A
:1042EC002802030008B5024B1B685B6A019308BDEA
:1042FC002802030008B5024B1B689B6A019308BD9A
:10430C002802030008B5024B1B68DB6A019308BD49
:10431C002802030008B5024B1B681B6B019308BDF8
:10432C002802030008B5024B1B685B6B019308BDA8
:10433C002802030008B5024B1B689B6B019308BD58
:10434C002802030008B5024B1B68DB6B019308BD08
:10435C002802030008B5024B1B681B6C019308BDB7
:10436C002802030008B5024B1B68DB69019308BDEA
:10437C003002030008B5024B1B681B6A019308BD91
:10438C003002030008B5024B1B681B68019308BD83
:10439C004C02030008B5024B1B685B68019308BD17
:1043AC004C02030008B5024B1B681B69019308BD46
:1043BC004C02030008B5024B1B685B69019308BDF6
:1043CC004C02030008B5024B1B689B69019308BDA6
:1043DC004C02030008B5024B1B68DB69019308BD56
:1043EC004C02030008B5024B1B681B6A019308BD05
:1043FC004C02030008B5024B1B685B68019308BDB7
:10440C002002030008B5024B1B68DB6A019308BD50
:10441C002002030008B5034B1B68D3F888300193C6
:10442C0008BD00002002030008B5034B1B68D3F83D
:10443C009430019308BD00002002030008B5024B24
:10444C001B685B68019308BD4002030008B5024B72
:10445C001B689B68019308BD4002030008B5024B22
:10446C001B68DB68019308BD4002030008B5024BD2
:10447C001B681B69019308BD4002030008B5024B81
:10448C001B685B69019308BD4002030008B5024B31
:10449C001B689B69019308BD4002030008B5024BE1
:1044AC001B68DB69019308BD4002030008B5024B91
:1044BC001B681B6A019308BD4002030008B5024B40
:1044CC001B681B6B019308BD4002030008B5024B2F
:1044DC001B685B6B019308BD4002030008B5024BDF
:1044EC001B681B6C019308BD4002030008B5024B0E
:1044FC001B685B6C019308BD4002030008B5024BBE
:10450C001B68DB6B019308BD4402030008B5024B2A
:10451C001B681B68019308BD1C02030008B5024B05
:10452C001B685B68019308BD1C02030008B5024BB5
:10453C001B685B6C019308BD1C02030000224068E1
:10454C001146FFF7B3BF002240681146FFF7BEBF0C
:10455C0040680022FFF7B2BF4068002281F00101E1
:10456C00FFF79CBF002340681A461946FFF78EBF21
:10457C00002340681A461946FFF780BF00224068A6
:10458C001146FFF773BF002240681146FFF75EBF6C
:10459C00406800220221FFF761BF002340681A46E1
:1045AC00FFF74CBF024B03225A60024A1A60704755
:1045BC0044E603202C500D0010B50446084621702B
:1045CC00FFF7D0FE00236360204610BD10B5094BE9
:1045DC00094C022200201A60084B2060A080A071B8
:1045EC00A360FFF707FF2046054A0649BDE81040C7
:1045FC0000F0AEBC58E603204CE603200000FFFFA1
:10460C0030E60320E1400D0010B50446006808B107
:10461C00FFF708FE204610BD10B58368044613B1A1
:10462C00032201469847204610BD000010B5064CE9
:10463C00002320462360FFF7EDFD2046034A044982
:10464C00BDE8104000F084BC5CE6032030E603209B
:10465C0015460D00F8B506460D468F180024BD42D0
:10466C000CD0336815F8011B9B6830469847031E25
:10467C0001DB1C44F3E7002C08BF1C462046F8BDA8
:10468C0013B50446084659B1019100F0B3FC2368F8
:10469C000199DB680246204602B0BDE8104018477D
:1046AC0002B010BD03689B68184730B58BB000236F
:1046BC008DF82430012A98BF0A2209AC0D46B1FBB3
:1046CC00F2F101FB125303F0FF03092B94BF3033BB
:1046DC003733DBB2AA4204F8013DEFD92146FFF78C
:1046EC00CFFF0BB030BD002340681A461946FFF7C8
:1046FC00C5BE0000014B024A1A60704760E60320F9
:10470C0060500D00024B1A68024B1A60704700BFD4
:10471C00C8E5032064E6032010B50446FFF77CFFD0
:10472C00204610BD0348044A04490023836000F06E
:10473C000FBC00BF68E6032030E6032025470D00C0
:10474C00014B1860704700BFCCE5032008B50B4B3C
:10475C0043B100F05BF903681B699847002801DD41
:10476C00AFF30080064B43B100F0CEF903681B6930
:10477C009847002801DDAFF3008008BD0000000061
:10478C000000000008B5FFF7E1FFFFF73BFD014B10
:10479C00186008BDD4E703200248034A0349121AE3
:1047AC0000F0EEBB00F4032004F40320C0510D0014
:1047BC0007B5002300931A466FF07701FFF734FE1C
:1047CC0003B05DF804FB000007B543880A2B08D042
:1047DC00502B0BD1094B1B684BB103B05DF804EBAC
:1047EC001847FFF7E5FF03B05DF804FB00230093C7
:1047FC001A466FF07701FFF717FEF4E77CE603200B
:10480C0038B5124C1248134D0021FFF78FFE236868
:10481C00AB42114B0CBF012200221A7002D0FFF7E1
:10482C00BBFF2560FFF7E6FC044600F0BFFB0B4B1B
:10483C0013B12046AFF3008000210848FFF75EFE5D
:10484C00BDE8384006480021FFF7E4BD00F4032022
:10485C004D470D001E1C279A78E60320000000002F
:10486C00D5470D00704710B51821044600F075FBB4
:10487C00204610BDF0B5037D062B8DB00E4600F121
:10488C0004074FF0000412D000F1080515F8011DC3
:10489C000A223046FFF709FFAF42044419D0002C1E
:1048AC00F4D02E213046FFF7FDFE0444EEE72F2313
:1048BC006A4639460A208DF80040FFF7BBFC684673
:1048CC0000F098FB33680246DB686946304698472F
:1048DC00044620460DB0F0BD10B5054B0446112220
:1048EC0040F8043B002100F059FB204610BD00BFEE
:1048FC0088500D000346074A10B543F8042B01F10C
:10490C00100251F8044B43F8044B9142F9D10A7848
:10491C001A7010BD88500D0010B59DF8084044EA7F
:10492C00032343EA024242EA016104234160037516
:10493C0010BD000013B5054B0360CB7800938B784A
:10494C004A780978FFF7E8FF02B010BD88500D00D7
:10495C0041747047704708B50021007CFFF732FDA9
:10496C0040EAE07008BD08B50121007CFFF72AFD84
:10497C0040EAE07008BD08B5007CFFF71BFD20EA9B
:10498C00E07008BD08B5007CFFF70CFD20EAE07074
:10499C0008BD13B50446007C0191FFF70BFD002800
:1049AC00019901DC607C20B1207CFFF713FD20EA2B
:1049BC00E07002B010BD007CFFF714BD10B51421DF
:1049CC00044600F0CAFA204610BD000010B54FF4A2
:1049DC007A73044608460021C4E90113044B236092
:1049EC000123207463741146FFF7CCFC204610BDE4
:1049FC009C500D00007C0022FFF7CCBC10B514229B
:104A0C000446002100F0CAFA204610BD10B5104C27
:104A1C0088B003A8FFF7F2FF2178BFF35B8F11F08A
:104A2C00010111D120460191FFF731FB019958B1D9
:104A3C0003AA0848FFF7CAFF2046FFF72DFB064ADA
:104A4C000649044800F084FA024808B010BD00BFC3
:104A5C0080E6032084E6032030E6032061490D0044
:104A6C0070474174704708B5007CFFF723FC20EABF
:104A7C00E07008BD08B5007CFFF7F4FB20EAE0709D
:104A8C0008BD08B5007CFFF7FDFB40EAE07008BDEF
:104A9C0008B5007CFFF7EEFB40EAE07008BD007C37
:104AAC00FFF7F8BB37B5457C04462DB1207C03B02D
:104ABC00BDE83040FFF7CEBB007C0191FFF7FAFB5D
:104ACC0000280199F2DC284603B030BD10B5142142
:104ADC00044600F042FA204610BD000010B54FF01D
:104AEC00000C0446084611464FF47A72C4E901C220
:104AFC00044A22600122207462741A46FFF7A2FB5A
:104B0C00204610BDCC500D0013B50E4C2178BFF3D0
:104B1C005B8F11F0010112D120460191FFF7B7FA1A
:104B2C00019960B1084A094B0948FFF7D7FF2046A5
:104B3C00FFF7B2FA074A0849054800F009FA044899
:104B4C0002B010BD98E603209CE6032020E703206A
:104B5C00A4E7032030E603206D4A0D007047F8B53A
:104B6C00064615460C468F18BC4206D0336814F81E
:104B7C00011B9B6830469847F6E72846F8BD007C39
:104B8C000022FFF7A7BB007C0021FFF7ABBB007C2A
:104B9C000021FFF7AFBB007C0021FFF7B3BB007C0B
:104BAC000021FFF7B7BB10B51421044600F0D5F96E
:104BBC00204610BD10B54FF47A7304460846002108
:104BCC00C4E90113034B236020741146FFF7C2FBA9
:104BDC00204610BDFC500D000A46007C002301212C
:104BEC00FFF770BBC9B2FFF7F7BF007C0022FFF7DD
:104BFC00A1BB007C0022FFF7A5BB00224068114638
:104C0C00FFF734BC002240681146FFF74FBC00226E
:104C1C0040681146FFF75ABC40680022FFF74EBCB3
:104C2C004068002281F00101FFF738BC0023406886
:104C3C001A461946FFF72ABC002240681146FFF7B6
:104C4C0005BC406800220221FFF708BC0023406825
:104C5C001A46FFF7F3BB0000024B04225A60024ACB
:104C6C001A607047B8E7032024510D0000234068F8
:104C7C001A46FFF7E3BB406800220221FFF7EEBBA8
:104C8C00002240681146FFF7E1BB00224068114644
:104C9C00FFF7ECBB002340681A461946FFF7EEBB42
:104CAC00002340681A461946FFF7F0BB4068002104
:104CBC00FFF714BC40680021FFF718BC40680022C5
:104CCC0081F00101FFF7EABB40680022FFF7F6BB59
:104CDC00002240681146FFF7F9BB002240681146DC
:104CEC00FFF7E4BB2DE9F043002495B016460D46C2
:104CFC000746FFF7F1FD214618220EA8009400F09C
:104D0C004DF94023CDE90C3421466B460CAA3046B4
:104D1C00FFF748FA044600284CD102460121686886
:104D2C00FFF7A4FB0221804622466868FFF79EFB32
:104D3C00009E81462146002E3CD000293AD1736852
:104D4C00022B03D00A2B11D0F669F4E7B8F1000F4F
:104D5C000AD0716906A8043107ADFFF7EBFD0FCD42
:104D6C003C1D0FC42B6823704146EDE7B9F1000FD1
:104D7C0001D14946E8E77469102201A800F00EF948
:104D8C0006238DF8143001AD04F1080318341868AB
:104D9C0059682A4603C20833A3421546F7D101A924
:104DAC0006A807ADFFF7A6FD0FCD3C1D0FC42B6861
:104DBC002370DEE70098FFF7EDF9384615B0BDE833
:104DCC00F0830000024B034A1A6000225A607047BD
:104DDC00C0E7032060510D00232813B502D9002031
:104DEC0002B010BDA0F10B03022B1AD8174C21787E
:104DFC00BFF35B8F11F001010BD120460191FFF73E
:104E0C0046F9019928B11248FFF7D6FB2046FFF767
:104E1C0043F90F4B1878FFF7ADFA0028DFD10120CA
:104E2C00DEE7012809D800F06BF80021007CFFF7C1
:104E3C0079FA80F00100C0B2D2E709380128EED827
:104E4C00FFF762FE007CFFF72DFAF2E7C8E70320BC
:104E5C00CCE70320232838B504460D460AD8FF2991
:104E6C0008D0FFF7B9FF28B129462046BDE83840E5
:104E7C00FFF7A0B938BD38B504460D46FFF7A2F9C7
:104E8C00FF2810D0062804D84D2323FA00F0C307BE
:104E9C0009D42046FFF7A0FF28B129462046BDE8DB
:104EAC003840FFF797B938BD10B50446FFF78AF9BB
:104EBC00031FDBB2012B08D92046FFF78DFF20B171
:104ECC002046BDE81040FFF78DB9002010BD000052
:104EDC0038B50023202543801423044603808560C5
:104EEC0005610649284600F03AF8044960602846F6
:104EFC0000F035F8E060204638BD00BF94510D003D
:104F0C0030B50F4D2978BFF35B8F11F0010487B0DA
:104F1C0013D12846FFF7BBF878B101A8FFF7D8FFEB
:104F2C0001AA21460748FFF745FE2846FFF7B4F8CB
:104F3C00054A0649034800F00BF8024807B030BD9B
:104F4C00D8E70320DCE7032030E60320694B0D0093
:104F5C000B460146184600F005B8FFF796B8FFF768
:104F6C0092B8000010B5054C13462CB10A46014608
:104F7C000220AFF3008010BD2046FCE700000000CB
:104F8C000A44914200F1FF3300D1704710B511F87B
:104F9C00014B03F8014F9142F9D110BD0244034675
:104FAC00934200D1704703F8011BF9E738B50D4B5C
:104FBC001D68AB6B04467BB91820FFF7A7FA0A4AA9
:104FCC000A4BA863C0E90023094B83600B23838140
:104FDC0001220023C0E90423AB6B00221C615A613F
:104FEC0038BD00BFCCE503200E33CDAB34126DE6DB
:104FFC00ECDE0500034613F8012B002AFBD1181A2E
:10500C00013870471D400D0059400D0081400D00C6
:10501C0085400D00000000000000000000000000B2
:10502C00A7450D009D450D0093450D0089450D00CC
:10503C007D450D0071450D00B94C0D00C14C0D00A6
:10504C0065450D005D450D0053450D0049450D00AE
:10505C00F14C0D006170700025592D256D2D2564C6
:10506C005425483A254D3A2553257A0061736374CB
:10507C00696D6500000000000000000081480D0013
:10508C0071480D0073480D00000000000000000086
:10509C0061490D00C9490D009F490D0061460D0085
:1050AC0091490D0063490D0073490D00C3490D0072
:1050BC0083490D005D490D00000000000000000058
:1050CC006D4A0D00D94A0D00B14A0D0061460D0024
:1050DC00814A0D009D4A0D008F4A0D00AB4A0D0010
:1050EC006F4A0D00734A0D00000000000000000024
:1050FC00694B0D00B34B0D008B4B0D006B4B0D0032
:10510C00934B0D009B4B0D00A34B0D00AB4B0D00B7
:10511C000000000000000000594C0D004F4C0D0029
:10512C00454C0D00074C0D00F3460D00394C0D009D
:10513C00B94C0D00C14C0D002D4C0D00254C0D0033
:10514C001B4C0D00114C0D00F14C0D00000000002B
:10515C0000000000794C0D00834C0D008D4C0D00AF
:10516C00974C0D00A14C0D00AD4C0D00B94C0D0031
:10517C00C14C0D00C94C0D00D54C0D00DD4C0D0083
:10518C00E74C0D00F14C0D000000000065410D00D6
:10519C00B1450D00D9450D0039460D0001470D00F4
:1051AC0011470D0031470D00654C0D00D14D0D0020
:0451BC0000000000EF
:0451C00000000000EB
:1051C40078500D00D0E5032000000000000000002E
:1051D40000000000000000000000000000000000CB
:1051E40000000000000000000000000000000000BB
:1051F40000000000000000000000000000000000AB
:10520400000000000000000000000000000000009A
:10521400000000000000000000000000000000008A
:08522400000000000000000082
:10522C00FFFFFFFF00000102030405060708090A3F
:10523C000B0C0D0E0F101112131415161718191A3A
:08524C001B1C1D1E1F20280081
:045254007856341242
:04000003D000401CCD
:00000001FF
